:020000040800F2
:1000000098110124E50200089D6100084D58000880
:10001000996100088D100008FD7B000800000000B9
:10002000000000000000000000000000CB64000899
:10003000E113000800000000A1610008CD64000881
:10004000FF020008FF020008FF020008FF0200088C
:10005000FF020008FF020008FF020008FF0200087C
:10006000FF020008FF020008FF020008FF0200086C
:10007000FF020008FF020008FF020008FF0200085C
:10008000FF020008FF020008FF020008FF0200084C
:10009000FF020008FF020008FF020008FF0200083C
:1000A000FF020008FF020008FF020008FF0200082C
:1000B000FF020008FF020008FF020008FF0200081C
:1000C000FF020008FF020008FF020008FF0200080C
:1000D000FF020008DD7B0008FF020008ED7B00083E
:1000E0001D140008FF02000800000000FF020008C5
:1000F000FF020008FF020008FF020008FF020008DC
:10010000FF020008FF020008FF020008FF020008CB
:10011000396B0008496B0008FF020008FF02000865
:10012000FF020008FF020008FF020008FF020008AB
:10013000FF020008FF020008FF020008FF0200089B
:1001400000000000000000000000000000000000AF
:10015000FF020008FF020008FF020008FF0200087B
:10016000FF020008FF020008FF020008FF0200086B
:10017000FF020008FF020008FF0200080000000064
:10018000FF020008FF020008596B0008FF02000888
:10019000FF020008FF020008FF020008FF0200083B
:1001A000FF020008FF020008FF0200080000000034
:1001B000FF020008FF020008FF020008FF0200081B
:1001C000FF020008FF02000800000000000000001D
:1001D0000000000000000000FF0200080000000016
:1001E000000000000000000000000000000000000F
:1001F0000000000000000000FF020008FF020008ED
:10020000FF020008FF02000800000000FF020008D3
:10021000FF020008FF020008FF020008FF020008BA
:10022000FF02000800000000FF02000800000000BC
:10023000FF020008FF02000800000000FF020008A3
:10024000FF020008FF020008FF020008FF0200088A
:10025000FF020008FF020008FF020008FF0200087A
:10026000FF020008FF020008FF020008FF0200086A
:10027000FF020008FF020008FF0200080000000063
:10028000FF020008FF020008FF020008FF0200084A
:1002900000000000FF020008FF020008000000004C
:1002A00000000000FF020008FF020008FF02000833
:1002B000CD7B0008FF020008FF020008FF020008D3
:1002C000FF020008FF020008FF020008DFF810D05C
:1002D00000F03CFB00480047B9940008AFF30080F1
:1002E000981101240648804706480047FEE7FEE7CC
:1002F000FEE7FEE7FEE7FEE7FEE7FEE7FEE7FEE7D6
:1003000071650008CD0200082DE9F05F0546002068
:1003100092469B4688460646814640241BE0284676
:1003200041464746224600F0C3F853465A46C01A93
:10033000914110D311461846224600F0AAF82D1A12
:1003400067EB01084F4622460120002100F0A1F88A
:1003500017EB00094E41201EA4F10104DFDC4846E2
:1003600031462A464346BDE8F09F40EA01039B0719
:1003700003D009E008C9121F08C0042AFAD203E01A
:1003800011F8013B00F8013B521EF9D27047D2B27E
:1003900001E000F8012B491EFBD270470022F6E76E
:1003A00010B513460A4604461946FFF7F0FF2046EB
:1003B00010BD421C10F8011B0029FBD1801A7047A8
:1003C00010B5002200E0521C835C8C5CA34201D17A
:1003D000002BF8D1D8B2E1B2401A10BD30B50446B6
:1003E0000020034600E05B1C934203D2E05CCD5C3E
:1003F000401BF8D030BD034611F8012B00F8012B4B
:10040000002AF9D11846704770B50F4D00B9286819
:10041000002412E00A4602E09E4203D0521C1378E8
:10042000002BF9D1DAB2224305D02BB124B100213F
:1004300000F8011B04E00446401C0678002EE9D1B8
:100440002860204670BD00005800002470B50646A4
:1004500007F016FC046805460A220021304600F029
:1004600085F82C6070BD30B50B4601460020202277
:10047000012409E021FA02F59D4205D303FA02F5B1
:10048000491B04FA02F52844151EA2F10102F1DC11
:1004900030BD202A04DB203A00FA02F10020704728
:1004A0009140C2F1200320FA03F3194390407047B2
:1004B000202A04DB203A21FA02F00021704721FAB9
:1004C00002F3D040C2F12002914008431946704720
:1004D0000FB4002300B589B00CA900910B996FF0FF
:1004E0000042CB601E4B06931E4B07930423CDE9BD
:1004F00001321D4A089202466B46002000F0ECFAD9
:1005000009B05DF814FB70B586B006464FF0FF30B9
:100510000091CDE90101002015460C4604903246B9
:10052000694604A8FFF7D4FF02460498211825B1B4
:1005300008B1084600E020462860049800280DD045
:10054000002A02DD0098884208D0081B0094CDE9FB
:1005500001043246694604A8FFF7BAFF06B070BD31
:10056000110D00082F0D00089D0900082DE9F04726
:1005700091460F4680460446002614F8015B2DB1D3
:1005800000F008FA0068405DC007F6D12B2D02D0BC
:100590002D2D18D0641E4A463946204600F0D8FB5F
:1005A00027B13968A14201D1C7F8008071054FF029
:1005B00002040BD54042002803DD07F061FB046014
:1005C000A007BDE8F08746F48066E4E70028F8DA83
:1005D00007F056FB04606FF00040F2E72DE9FE4F94
:1005E000804681EA0300C00F0C46009021F00041D4
:1005F00023F00045B8EB0200A94105D24046214650
:1006000090461C460B46024623F00040104347D05C
:10061000270DC7F30A00C3F30A510290401A019054
:1006200040286BDAC3F3130040F4801B0098924615
:1006300020B10023D2EB030A63EB0B0B0198594660
:10064000C0F140025046FFF724FF06460D465046D3
:100650005946019A00F08CF910EB08006141002422
:1006600087EA115284EAE7731A4340D0009A62B3D2
:10067000019A012A4FEA075215DC001B61EB0201C7
:100680004FF0004202EA0752CDE90042001C41F55A
:10069000801132462B4600F0B9FB03B0BDE8F08F65
:1006A00040462146F9E7001B61EB0201001C41F5C1
:1006B000801300185B412018A2F5001747EB0301D7
:1006C00040EAD570B6196D4111E06D084FEA360663
:1006D00045EAC0754FEA0752001B61EB0201001C9E
:1006E00041F5801149084FEA300000195141324666
:1006F0002B4603B0BDE8F04F00F079BB0098012213
:1007000040000023D0EB020263EBE0730098214627
:100710004FEAE074B8EB000061EB0401E9E783F015
:1007200000435BE781F0004158E72DE9FE4F81EA85
:10073000030404F0004421F0004100944FF0000B4A
:1007400023F0004350EA01045ED052EA03045BD078
:10075000C3F30A54C1F30A552C44A4F2F3340194B0
:10076000A0FB0254C1F3130141F48011C3F313033E
:1007700043F4801301FB024400FB034E840A970AF2
:1007800044EA815447EA8357A4FB076802958D0A1F
:1007900005FB07854FEA932C04FB0C542705029DAB
:1007A0004FEA065847EA1637B5EB08056EEB070C1B
:1007B000870E920E47EA811742EA8312A7FB0201D5
:1007C000B6EB0B0164EB00042B0D43EA0C335E180F
:1007D00044EB1C50DA465146E7FB0201C5F3130413
:1007E0004FEA0B3343EA14534FEA0432019C43EAC5
:1007F0000603A4F10C040294009CCDE900B400F0BF
:1008000005FB03B0BDE8F08F00200146F9E72DE9B4
:10081000F04D81EA030404F0004B21F0004514463A
:100820004FF0000A23F0004150EA050220D054EABC
:1008300001021DD0C5F30A570246C5F31303C1F3E5
:100840001300C1F30A5640F4801543F48013A7EB5C
:100850000608101BD64608F2FD3873EB050002D3DC
:1008600008F1010801E092185B41B8F1000F03DACA
:1008700000200146BDE8F08D00204FF480110646AF
:1008800084460EE0171B73EB050705D3121B63EBC1
:10089000050306434CEA010C49084FEA3000921860
:1008A0005B4150EA0107EDD152EA030012D082EA1F
:1008B000040083EA0501084305D0101BAB4106D2B2
:1008C0000122002306E000224FF0004302E06FF017
:1008D000010253101AEB06004CEB085110EB0A0012
:1008E00041EB0B01BDE8F04D00F081BAC1F30A52B3
:1008F000C1F3130140F2FF3341F480119A4202DA4E
:1009000000200146704740F233439A42A2F233423C
:1009100002DC5242FFF7CCBDFFF7BBBD30B5041E71
:1009200071F1000404DB4FF00044404264EB01012C
:10093000141E73F1000405DB1C464FF000435242C5
:1009400063EB0403994208BF904230BD064C074D4B
:1009500006E0E06840F0010394E80700984710348F
:10096000AC42F6D3FFF7B6FC64A6000884A60008E4
:10097000202A06DBCB17203A41FA02F043EAE07363
:1009800006E041FA02F3D040C2F120029140084350
:10099000194670470048704714A6000810B5044671
:1009A000FFF7F8FF0068005D00F0010010BD0000D7
:1009B0002DE9FF4F087883B09946FF2805D0491CE0
:1009C0002D2804D00024002008E000200BE00124A2
:1009D000F9E700EB800003EB4000491C0B78FF2B8C
:1009E000F7D104B1404200230293147819461D4602
:1009F0002D2C01D02B2C04D1521C2D2C13D00024D3
:100A00000294AA461478FF2C0FD00A25A3FB057880
:100A100001FB05814FF0000C03FB0C11521CE31984
:100A20004AEB0101EEE70124EAE7814453EA0100C1
:100A300002D019F5C87F06DA03980021C0E9001139
:100A400007B0BDE8F08F0025AE4E2F46DFF8B88224
:100A5000184600F037FACDE90001B9F1000002DADA
:100A6000C9F1000400E004460023A74A1AEB030B77
:100A700042EB045A12E0E00707D02A4633463846D4
:100A80004146FFF752FE074688462A46334610463F
:100A90001946FFF74AFE05460E466410002CEAD1BF
:100AA000DDE90001B9F1000F5A46534606DAFFF7B7
:100AB000AEFE3A464346FFF7AAFE05E0FFF735FED5
:100AC0003A464346FFF731FE029A0AB181F00041EF
:100AD000039AC2E90001B3E72DE9FF4F1F468DB02D
:100AE000D7E901464FF0FF382E2045464FF0000968
:100AF0000B90B9696D1C0E988847396A8246884701
:100B00000028F6D1BAF1FF3F0AD024F4D064002EB9
:100B100011DDBAF12B0F08D0BAF12D0F0BD102E085
:100B2000404611B08DE744F48064B9696D1C0E989D
:100B300088478246761E6946600501D52D2000E073
:100B40002B208DF8000001F1010B0DF1200809E0C8
:100B5000B9696D1C0E98884782460F9844F400745A
:100B6000761E0560002E02DDBAF1300FF0D00B9931
:100B70008A453ED144F0800406E00F99681CA9F133
:100B8000010944F400740860B9696D1C761E0E9862
:100B9000884782463028F0D02BE00B998A4505D152
:100BA000200603D444F08004761E18E0504607F077
:100BB0006BF908B30DF11301761E44F400748B45F4
:100BC00008D2AAF130000BF8010B200607D5A9F1D5
:100BD000010003E0200602D409F101008146A005CE
:100BE00002D50F99681C0860B9696D1C0E9888477A
:100BF0008246002ED1DC53E0002E51DDBAF1650FA4
:100C000002D0BAF1450F4BD1A00549D5B9696D1C89
:100C100024F44074761E0E9888478246002E0CDD20
:100C20002B2804D0BAF12D0F07D144F48074B96990
:100C30006D1C0E9888478246761EE00501D52D2151
:100C400000E02B2108F8011BCDF82C8021E00DF1EC
:100C50002901761E44F4007488450CD2AAF13000B4
:100C600010F0FF0088F8000002D10B99884509D9DF
:100C700008F1010806E0E00501D5244801E042F250
:100C80000F708146B9696D1C0E98884782460F988F
:100C90000560002E04DD504607F0F6F80028D6D196
:100CA000F9690E988847FF208BF8000088F800004B
:100CB0000020069007904B466A4608A906A8FFF751
:100CC00077FEA00502D46FF001002AE714F0240F8C
:100CD0000AD0E00714D1DDE906123868031D3B6035
:100CE0000068C0E900120BE0DDE9060100F0F6F84B
:100CF0000146E00704D13868021D3A6000680160CF
:100D000028460EE7000014400000F03FF1D8FFFF36
:100D1000426842B1016811F8013B23B1521EC0E99B
:100D20000012184670470121C160881E7047426852
:100D30005AB1C368016843B983688B4205D0491E24
:100D4000521CC0E90012002070474FF0FF3070477E
:100D50002DE9F05F82460078002715468B460AF1A0
:100D60000104B946302801D09DB113E014F8010BFD
:100D70000127782803D0582801D045B10AE00DB1E9
:100D8000102D07D10027102514F8010B02E00825CB
:100D900000E00A250026B0460EE005FB080005FB32
:100DA00006F1012701EB10461FFA80F8B6F5803FE7
:100DB00000D3B94614F8010B294600F075F8002855
:100DC000EBDABBF1000F05D00FB1641E00E0544612
:100DD000CBF80040B9F1000F06D006F051FF022118
:100DE0000160C81EBDE8F09F48EA0640FAE710B56A
:100DF000141E73F1000408DA401C41F1000192183E
:100E00005B411A4301D120F0010010BD2DE9F04DE6
:100E100092469B4611B1B1FA81F202E0B0FA80F23B
:100E200020329046FFF735FB04460F4640EA0A00A1
:100E300041EA0B0153465A46084313D0114653EA80
:100E4000010019D0C8F140025046FFF731FB0546BA
:100E50000E46504659464246FFF71BFB084305D055
:100E6000012004E020463946BDE8F08D002005430E
:100E700046EAE0762C4337430A986305E40AA0EB80
:100E800008000022FD0A44EA47540A3002D5002037
:100E90000146E9E7010510196941DDE90845001936
:100EA0006941BDE8F04DA2E73A2800D2303820F081
:100EB0002002412A01D3A2F13700884201D34FF02A
:100EC000FF3070470EB540F2334202920022CDE966
:100ED00000221346FFF79AFF03B000BD01F0004364
:100EE00030B421F0004150EA010206D00A0DA2F50B
:100EF0006072C1F31301002A02DC30BC002070478D
:100F0000440F44EAC104C100E01830BC00EBC250F9
:100F1000AFF300800029A8BF7047401C490008BFFC
:100F200020F00100704710B4B0FA80FC00FA0CF019
:100F300050EA010404BF10BC704749B1CCF1200451
:100F400021FA04F411FA0CF118BF012121430843DE
:100F5000A3EB0C01CB1D4FEA00614FEA102042BF0A
:100F6000002010BC704700EBC35010440029A4BF00
:100F700010BC7047401C490008BF20F0010010BCA5
:100F80007047000010B5012304A20649064800F08E
:100F900047F8054800F034F810BD000042483137EA
:100FA00035300000B8000024FC04002438B50446A5
:100FB0000A200090217C022304F11402E06801F071
:100FC000EBF808B1012038BD207D6082607DA17CF6
:100FD00040EA01206082608A00EE100AB8EE400B01
:100FE0009FED051B80EE012BBCEEC20B10EE100A2C
:100FF00060820020E7E70000333333333333F33FBD
:1010000010B504460121204600F021F803212046B6
:1010100000F01DF81021204600F019F8002010BD46
:101020002DE9F04104460F4615461E4626B14720DD
:1010300020744620607403E0BA202074B9206074E4
:10104000E76029462046FFF7D6F9BDE8F08113B5E1
:1010500082B004460A200090617C012303AAE06864
:1010600001F04CF910B1012004B010BD0020FBE7E5
:1010700000B5BDB0F022044901A8FFF776F901A838
:1010800007F0CAFB3DB000BD509A000800BFFEE764
:1010900010B5044622464FF48061024800F0A4FFD8
:1010A00010BD0000000C02587CB504460D46002619
:1010B00000F0ECF800BF4FF48061394800F08CFF7D
:1010C0000028F8D000BF4FF48061354800F084FF5D
:1010D0000128F8D0002606E000F0AEF840B20DF886
:1010E0000600701C46B2052EF6DB322000F07AF9BD
:1010F00000F07EF80120FFF7CBFF9DF900009DF97D
:10110000011008449DF9021008449DF90310084499
:101110009DF9041088420FD19DF9020000EE100ADB
:10112000B8EEC00A84ED000A9DF9000000EE100A36
:10113000B8EEC00A85ED000A9DF8030000F08000BB
:1011400088B19DF9030040F07F000A2190FBF1F087
:101150009DF902100844404200EE100AB8EEC00AA1
:1011600084ED000A0DE09DF903000A2190FBF1F0E7
:101170009DF90210084400EE100AB8EEC00A84ED92
:10118000000A9DF901000A2190FBF1F09DF9001081
:10119000084400EE100AB8EEC00A85ED000A7CBDD6
:1011A000000C025800B587B000BF0F48006840F03F
:1011B00008000D4908600846006800F0080001902A
:1011C00000BF00BF142102A8FFF7E8F80020039039
:1011D0004FF4806002900220059002A9034800F0BD
:1011E00003FE07B000BD0000E0440258000C0258A6
:1011F00000B587B000BF0E48006840F008000C49F9
:1012000008600846006800F00800019000BF00BFB9
:10121000142102A8FFF7C2F8012003908002029077
:101220000020049002A9034800F0DEFD07B000BDD5
:10123000E0440258000C025870B50025002400BF9D
:101240001EE000BF4FF480610F4800F0C5FE00288B
:10125000F8D0322000F0C6F84FF480610A4800F060
:10126000BBFE01280AD180202041054300BF4FF476
:101270008061054800F0B0FE0128F8D0601CC4B2BF
:10128000082CDEDB284670BD000C025810B5FFF7B5
:10129000AFFF0020FFF7FCFE44F6206000F0A2F84C
:1012A0000120FFF7F5FE3C2000F09CF8FFF77AFFE5
:1012B00010BD00007FB504460D469FED1B0A8DED65
:1012C000030A9FED190A8DED020A18A006F098FC9A
:1012D00072B602A903A8FFF7E7FE62B64FF4FA6000
:1012E00000F0E8FC9DED020AB7EEC00A8DED000BA0
:1012F0009DED030AB7EEC00A53EC102B19A006F0BF
:101300007FFC9DED030AB5EEC00AF1EE10FA05D0A0
:101310001BA006F075FC012004B070BD24A006F0EF
:101320006FFC0020F8E70000000000000D0A2D2DE2
:101330002D2D2D2D2D2D2DE6B8A9E6B9BFE5BAA688
:10134000E4BCA0E6849FE599A8E6B58BE8AF952DAF
:101350002D2D2D2D2D2D2D2D2D2D2D2D2D2D200DEA
:101360000A0000000D0A2A2054454D3A20252E314E
:10137000662048554D3A20252E3166200D0A000082
:101380000D0A202D2D2D2D2D2D2D2D2D2D2D4448AB
:1013900054313120504153532D2D2D2D2D2D2D2DD8
:1013A0002D2D2D2D2D2D2D2D2D2D2D200D0A000017
:1013B0000D0A202D2D2D2D2D2D2D2D2D2D2D44487B
:1013C000543131204641494C2D2D2D2D2D2D2D2DC3
:1013D0002D2D2D2D2D2D2D2D2D2D2D200D0A0000E7
:1013E0007047000070B504464FF6FF70001B401FA9
:1013F00085B2094800684562074803F0E1F803E058
:1014000005480068406A85B24FF6FA708542F7DBFE
:10141000014803F035F970BD0401002410B54FF404
:10142000005000F0D3FC4FF4804000F0CFFC4FF4AC
:10143000004000F0CBFC10BD72B600BFFEE700001C
:101440002DE9F041044600F0D5FD804614B9012095
:10145000BDE8F08194F83500022808D0802060654E
:1014600000BF002084F8340000BF0120F0E7FE49EF
:101470002068884249D0FC4918312068884244D00D
:10148000F9493031206888423FD0F7494831206817
:1014900088423AD0F44960312068884235D0F24918
:1014A00078312068884230D0EF49903120688842F6
:1014B0002BD0ED49A8312068884226D0EB4920681E
:1014C000884222D0E9491831206888421DD0E74976
:1014D00030312068884218D0E44948312068884279
:1014E00013D0E2496031206888420ED0DF4978315C
:1014F0002068884209D0DD4990312068884204D0B4
:10150000DA49A8312068884201D1012000E000209A
:1015100068B12068006820F01E002168086020681B
:10152000406920F0800021684861256806E0206855
:10153000006820F00E00216808602568CA4920680C
:10154000884270D0C8491831206888426BD0C6499B
:1015500030312068884266D0C349483120688842CB
:1015600061D0C1496031206888425CD0BE49783181
:101570002068884257D0BC4990312068884252D0B8
:10158000B949A831206888424DD0B84920688842BE
:1015900049D0B64918312068884244D0B349303127
:1015A000206888423FD0B1494831206888423AD00B
:1015B000AE4960312068884235D0AC497831206826
:1015C000884230D0A9499031206888422BD0A74961
:1015D000A8312068884226D0A5492068884222D0B8
:1015E000A3491431206888421DD0A14928312068C0
:1015F000884218D09E493C312068884213D09C49CB
:101600005031206888420ED0994964312068884260
:1016100009D0974978312068884204D094498C31A8
:101620002068884201D1012000E0002028B1206E0E
:10163000006820F48070216E08608B492068884221
:1016400049D0894918312068884244D086493031D0
:10165000206888423FD084494831206888423AD087
:10166000814960312068884235D07F4978312068CF
:10167000884230D07C499031206888422BD07A490A
:10168000A8312068884226D078492068884222D034
:1016900076491831206888421DD07449303120685D
:1016A000884218D0714948312068884213D06F4968
:1016B0006031206888420ED06C49783120688842B9
:1016C00009D06A4990312068884204D06749A8311E
:1016D0002068884206D12068006820F00100216857
:1016E000086005E02068006820F0010021680860BB
:1016F00011E000F07FFCA0EB080005280BD92020AA
:101700006065032084F8350000BF002084F83400B1
:1017100000BF01209CE6286800F001000028E8D105
:1017200051492068884249D04F4918312068884281
:1017300044D04D493031206888423FD04A49483131
:10174000206888423AD0484960312068884235D0C4
:10175000454978312068884230D04349903120682B
:1017600088422BD04049A8312068884226D03F4982
:101770002068884222D03D491831206888421DD017
:101780003A4930312068884218D0384948312068B9
:10179000884213D035496031206888420ED03349E1
:1017A00078312068884209D03049903120688842D9
:1017B00004D02E49A8312068884201D1012000E0E0
:1017C000002040B1A66D94F85C0000F01F013F209E
:1017D0008840B06007E0A76D94F85C0000F01F013E
:1017E00001208840786020492068884276D01E49D0
:1017F00018312068884271D01B49303120688842F6
:101800006CD0194948312068884267D01649603148
:101810002068884262D014497831206888425DD0BF
:10182000114990312068884258D00F49A83120686A
:10183000884253D00D49206888424FD00B49183157
:10184000206888424AD0094930312068884245D012
:10185000064948312068884240D0044960312068F8
:1018600088423BD0014905E01000024010040240CC
:10187000085402587831206888422FD025492068C2
:1018800088422BD0234918312068884226D022492B
:101890002068884222D020491431206888421DD017
:1018A0001D4928312068884218D01B493C312068E6
:1018B000884213D018495031206888420ED016490A
:1018C00064312068884209D0134978312068884201
:1018D00004D011498C312068884201D1012000E0F8
:1018E000002068B1D4E919104860E06E40B1E06EA4
:1018F000006820F48070E16E0860D4E91C10486034
:10190000012084F8350000BF002084F8340000BFB7
:1019100000BF9DE5A00402400854025870B504467B
:101920000CB9012070BD94F83500022803D0802046
:1019300060650120F6E7DC492068884249D0DA4931
:1019400018312068884244D0D74930312068884215
:101950003FD0D5494831206888423AD0D2496031D9
:101960002068884235D0D04978312068884230D00C
:10197000CD499031206888422BD0CB49A8312068CE
:10198000884226D0C9492068884222D0C7491831E8
:10199000206888421DD0C54930312068884218D05F
:1019A000C24948312068884213D0C049603120685C
:1019B00088420ED0BD4978312068884209D0BB49A1
:1019C00090312068884204D0B849A8312068884204
:1019D00001D1012000E00020F0B3042084F835009C
:1019E000B149206888424BD0AF49183120688842FD
:1019F00046D0AD4930312068884241D0AA494831AB
:101A0000206888423CD0A84960312068884237D09D
:101A1000A54978312068884232D0A34990312068A6
:101A200088422DD0A049A8312068884228D09F49FB
:101A30002068884224D09D491831206888421FD0F0
:101A40009A493031206888421AD098494831206834
:101A5000884215D0954900E020E060312068884236
:101A60000ED0924978312068884209D08F49903150
:101A70002068884204D08D49A8312068884206D168
:101A80002068006820F001002168086009E12068F2
:101A9000006820F001002168086002E12068006809
:101AA00020F00E00216808607F492068884249D0F4
:101AB0007D4918312068884244D07B493031206804
:101AC00088423FD078494831206888423AD07649E8
:101AD00060312068884235D0734978312068884267
:101AE00030D071499031206888422BD06E49A8319E
:101AF0002068884226D06D492068884222D06B49F0
:101B00001831206888421DD06849303120688842E9
:101B100018D0664948312068884213D06349603143
:101B2000206888420ED0614978312068884209D007
:101B30005E4990312068884204D05C49A831206811
:101B4000884206D12068006820F001002168086002
:101B500005E02068006820F0010021680860524913
:101B60002068884270D050491831206888426BD074
:101B70004D4930312068884266D04B494831206851
:101B8000884261D048496031206888425CD046492B
:101B900078312068884257D0434990312068884284
:101BA00052D04149A831206888424DD03F49206831
:101BB000884249D03D4918312068884244D03B4989
:101BC0003031206888423FD0384948312068884207
:101BD0003AD0364960312068884235D0334978316F
:101BE0002068884230D031499031206888422BD01B
:101BF0002E49A8312068884226D02D492068884285
:101C000022D02B491431206888421DD02849283120
:101C10002068884218D026493C312068884213D079
:101C200023495031206888420ED021496431206810
:101C3000884209D01E4978312068884204D01C4966
:101C40008C312068884201D1012000E00020D8B109
:101C5000206E006820F48070216E0860A56D94F8F5
:101C60005C0000F01F01012088406860D4E9191071
:101C70004860E06E40B1E06E006820F48070E16E74
:101C80000860D4E91C104860012084F8350000BFCA
:101C9000002084F8340000BF206D10B12046216D73
:101CA000884700203EE60000100002401004024079
:101CB0000854025870B5044600F09CF906462546C3
:101CC000681C10B104480078054400BF00F092F988
:101CD000801BA842FAD370BD1800002410B504463A
:101CE000B4F5005F06D0B4F5804F45D0B4F5004F91
:101CF00056D14BE04FF400512A4800F06DF900280E
:101D000039D101202849087028480078B0B1012253
:101D10001103274800F068F90122D103254800F09B
:101D200063F901220421244800F05EF9632023496D
:101D30000968C86301202249087016E000224FF4A8
:101D400080511B4800F050F900224FF4004119481F
:101D500000F04AF900220421174800F045F900205C
:101D600016490968C863164908701048007880F061
:101D700001000E49087013E04FF48041094800F05B
:101D80002BF910B901200F49087009E04FF4004108
:101D9000044800F021F910B901200B49087000BF78
:101DA00000BF10BD00100258020000240C000024E7
:101DB0000008025800000258000C0258500100248C
:101DC00003000024010000240000002410B5044694
:101DD00004480068204020B1024804602046FFF714
:101DE0007DFF10BD88000058F8B502460B46002163
:101DF0006D4DD2E001278F401E6806EA0704002CD3
:101E000072D01E7906F00306012E04D01E7906F06A
:101E10000306022E13D190684F000326BE40B04344
:101E20004F00DE68BE4030439060506801268E400F
:101E3000B0431E79C6F300168E40304350601E79C1
:101E400006F00306032E09D0D0684F000326BE40DB
:101E5000B0434F009E68BE403043D0601E7906F00C
:101E60000306022E13D1CF0802F1200656F82700F0
:101E70004E07F70E0F26BE40B0434F07FF0E1E69F8
:101E8000BE403043CF0802F1200646F82700106814
:101E90004F000326BE40B0431E7906F003064F00F4
:101EA000BE40304310605E6806F44036002E73D0AA
:101EB00000BF3E4E366846F002063C4F3E603E464E
:101EC000366806F00206009600BF00BF384E8F0845
:101ED00056F827008E07370F0F26BE40B043354E09
:101EE000B24202D1002629E056E0334EB24201D17F
:101EF000012623E0314EB24201D102261EE0304ECF
:101F0000B24201D1032619E02E4EB24201D104267D
:101F100014E02D4EB24201D105260FE02B4EB24205
:101F200001D106260AE02A4EB24201D1072605E079
:101F3000284EB24201D1092600E00A268F073F0F42
:101F4000BE4030431A4E8F0846F827004FF0B04687
:101F50003068A0435E6806F4801606B120434FF057
:101F6000B04630607068A0435E6806F4001606B1A3
:101F700020434FF0B04670606868A0435E6806F486
:101F8000003606B1204368602868A0435E6806F406
:101F9000803606B120432860491C1E68CE40002EC2
:101FA0007FF428AFF8BD000080000058F4440258C8
:101FB00008040058000002580004025800080258A3
:101FC000000C025800100258001402580018025861
:101FD000001C025800240258024613690B400BB142
:101FE000012000E0002070470AB1816101E00B048C
:101FF00083617047014800687047000010000024AA
:10200000024692F8410020282DD100BF92F84000EE
:10201000012801D102207047012082F8400000BF52
:10202000242082F841001068006820F00100136845
:1020300018601068006820F48050136818601068F9
:1020400000680843136818601068006840F00100D9
:1020500013681860202082F8410000BF002082F839
:10206000400000BFD7E70220D5E710B502460B4677
:1020700092F8410020282AD100BF92F840000128A0
:1020800001D1022010BD012082F8400000BF2420B1
:1020900082F841001068006820F001001468206098
:1020A0001068016821F4706141EA03211068016041
:1020B0001068006840F0010014682060202082F859
:1020C000410000BF002082F8400000BFDAE7022094
:1020D000D8E7000010B504460CB9012010BD94F8F3
:1020E000410028B9002084F84000204600F0B6F9ED
:1020F000242084F841002068006820F00100216855
:102100000860606820F0706021680861206880685D
:1021100020F4004021688860E068012805D1A068AB
:1021200040F400402168886004E0A06840F4044066
:1021300021688860E068022802D180022168486036
:102140002068406813490843216848602068C068D7
:1021500020F400402168C860D4E904010843A16963
:1021600040EA01202168C860D4E9070108432168DA
:1021700008602068006840F00100216808600020C5
:102180006064202084F841000020206384F842002D
:1021900000BFA3E7008000022DE9F843044689460A
:1021A00016461F46DDF8208094F84100202873D1A0
:1021B00000BF94F84000012802D10220BDE8F88356
:1021C000012084F8400000BFFFF714FF05461923E3
:1021D0000122D1032046009503F00EFC08B1012036
:1021E000ECE7222084F84100102084F8420000200F
:1021F0006064666267856063608DFF280CD9FF208C
:1022000020853C48009094F828204FF08073494680
:10221000204603F0D5FB0BE0608D2085354800900B
:1022200094F828204FF000734946204603F0C8FB7D
:102230003FE02A464146204603F00EFC08B101204B
:10224000BCE72068406A616A0870606A401C60628E
:10225000208D401E2085608D401E6085608D40B3BE
:10226000208D30BB4346002280212046009503F09C
:10227000C3FB08B10120A1E7608DFF280DD9FF2025
:1022800020850020009094F828204FF08073494664
:10229000204603F095FB0CE02AE0608D20850020AD
:1022A000009094F828204FF000734946204603F030
:1022B00087FB608D0028BCD12A464146204603F0AA
:1022C00027FC08B1012079E720202168C861206837
:1022D00040680949084021684860202084F841008E
:1022E000002084F8420000BF84F8400000BF65E78A
:1022F000022063E70024008000E800FE2DE9F84397
:102300000446894616461F46DDF8208094F84100B1
:10231000202871D100BF94F84000012802D102208A
:10232000BDE8F883012084F8400000BFFFF762FE9B
:10233000054619230122D1032046009503F05CFBDA
:1023400008B10120ECE7212084F84100102084F836
:10235000420000206064666267856063608DFF28CC
:102360000BD9FF2020853B48009094F82820C30219
:102370004946204603F024FB0AE0608D208535485D
:10238000009094F8282003034946204603F018FBE8
:102390003FE02A464146204603F0E5FB08B1012014
:1023A000BEE7606A007821688862606A401C6062EB
:1023B000608D401E6085208D401E2085608D40B35D
:1023C000208D30BB4346002280212046009503F03B
:1023D00013FB08B10120A3E7608DFF280DD9FF2072
:1023E00020850020009094F828204FF08073494603
:1023F000204603F0E5FA0CE02AE0608D20850020FD
:10240000009094F828204FF000734946204603F0CE
:10241000D7FA608D0028BCD12A464146204603F0F9
:1024200077FB08B101207BE720202168C861206884
:1024300040680949084021684860202084F841002C
:10244000002084F8420000BF84F8400000BF67E726
:10245000022065E70020008000E800FE10B5B4B05F
:10246000044614212FA8FDF799FFB42102A8FDF717
:1024700095FF48492068884234D108200290002006
:10248000219002A800F0E4FB08B1FEF7D5FF00BFE1
:102490004148006840F020003F4908600846006855
:1024A00000F02000019000BF00BF03202F901220F9
:1024B0003090002031903290042033902FA937487B
:1024C000FFF792FC00BF34480830006840F48000F9
:1024D0003149083108600846006800F48000019026
:1024E00000BF54E02E492068884250D10820029055
:1024F0000020219002A800F0ABFB08B1FEF79CFF82
:1025000000BF2548006840F00400234908600846E1
:10251000006800F00400019000BF00BF00BF084643
:10252000006840F0010008600846006800F0010003
:10253000019000BF00BF4FF400702F901220309028
:10254000002031903290042033902FA91548FFF7D6
:102550004BFC4FF480702F9012203090002031906F
:102560003290042033902FA90F48FFF73DFC00BFA5
:1025700009480830006840F4000007490831086045
:102580000846006800F40000019000BF00BF34B0AE
:1025900010BD000000580040E044025800140258EA
:1025A000005C004000080258000002580348006820
:1025B0000349097808440149086070471000002465
:1025C0001800002410B5032000F0BCF801F084FAD4
:1025D00010490968C1F303210F4A515C01F01F0142
:1025E00020FA01F40B48006800F00F001146085C67
:1025F00000F01F0024FA00F0084908600848046051
:102600000F2000F00FF808B1012010BD00F036F8DF
:102610000020FAE718440258409A000820000024DD
:102620001C00002470B504461148007808B9012048
:1026300070BD0F4800784FF47A71B1FBF0F00D498E
:102640000968B1FBF0F5284601F0DEFE08B1012073
:10265000EEE7102C07D200222146501E00F034F87D
:102660000548046001E00120E2E70020E0E7000007
:10267000180000241C0000241400002408B500BF2A
:102680000648006840F002000449086008460068F7
:1026900000F00200009000BF00BF08BDF4440258E3
:1026A0000146084600280DDB00BF00BF00F01F03F5
:1026B00001229A4043099B0003F1E023C3F8002163
:1026C00000BF00BF00BF70472DE9F05F80460D4698
:1026D000164605F0B9FA074639462A46334601F050
:1026E0000700C0F1070ABAF1040F02D94FF0040A3B
:1026F00001E0C0F1070AD14600F1040ABAF1070F60
:1027000002D24FF0000A01E0A0F1030AD4464FF0D4
:10271000010A0AFA09FAAAF1010A0AEA020A0AFAFD
:102720000CFA4FF0010B0BFA0CFBABF1010B0BEAAF
:10273000030B4AEA0B042146404605F08DFABDE83A
:10274000F09F000000BF00F00702064B19684FF62B
:10275000FF031940044B0B4343EA0221014B19606C
:1027600000BF70470CED00E00000FA0570B50446AC
:1027700015480068C0F3800048B91348006800F0AD
:102780000700A04201D0012070BD0020FCE70E48E8
:10279000006820F0070020430B490860FFF72AFC7F
:1027A000054607E0FFF726FC401BB0F57A7F01D90C
:1027B0000120E9E7044808380068C0F340300028E9
:1027C000F0D00020E0E700000C48025810B501F0FE
:1027D00039F905490968C1F30211044A515C01F055
:1027E0001F01C84010BD000020440258409A000854
:1027F00070B50146844D2D6805F00303824D2D68A8
:10280000C5F30530804D2D1D2D68C5F300147E4D98
:1028100014352D68C5F3CC0515FB04F501EE105AEF
:10282000B8EE411AF0EE410A00286FD023B1012B17
:102830004ED0022B6BD16BE0734D283D2D68C5F354
:1028400040153DB3704D283D2D68C5F3C1066F4D51
:1028500025FA06F201EE102AF8EE411A01EE100AEE
:10286000B8EE411A81EE812A9FED691AC0EE811AF5
:10287000654D10352D68C5F3080501EE105AB8EE08
:10288000411A31EE811AF7EE001A31EE211A22EECA
:10289000010A1CE001EE100AB8EE411ADFED5D1AE4
:1028A00081EE812A9FED5A1AC0EE811A564D1035DD
:1028B0002D68C5F3080501EE105AB8EE411A31EE45
:1028C000811AF7EE001A31EE211A22EE010A5BE0BE
:1028D00001EE100AB8EE411ADFED4F1A81EE812A9F
:1028E0009FED4B1AC0EE811A474D10352D68C5F388
:1028F000080501EE105AB8EE411A31EE811AF7EED2
:10290000001A31EE211A22EE010A3DE077E01DE0C7
:1029100001EE100AB8EE411A9FED402AC2EE011AEC
:102920009FED3B1A80EE812A374D10352D68C5F397
:10293000080501EE105AB8EE411A32EE011AB7EE50
:10294000002A31EE021A21EE810A1DE001EE100A82
:10295000B8EE411ADFED301A81EE812A9FED2C1A74
:10296000C0EE811A284D10352D68C5F3080501EE1B
:10297000105AB8EE411A31EE811AF7EE001A31EE14
:10298000211A22EE010A00BF00BF1F4D10352D682D
:10299000C5F3462501EE105AB8EE411AF7EE001ABB
:1029A00031EE211AC0EE011ABCEEE11A81ED001AD7
:1029B000154D10352D68C5F3064501EE105AB8EED9
:1029C000411AF7EE001A31EE211AC0EE011ABCEEE0
:1029D000E11A81ED011A0C4D10352D68C5F306651D
:1029E00001EE105AB8EE411AF7EE001A31EE211A34
:1029F000C0EE011ABCEEE11A81ED021A03E00025D7
:102A00000D604D608D6070BD284402580090D00369
:102A1000000000460024744C0024744A20BCBE4BC5
:102A200070B50146844D2D6805F00303824D2D6875
:102A3000C5F30550804D2D1D2D68C5F300247E4D36
:102A40001C352D68C5F3CC0515FB04F501EE105AB5
:102A5000B8EE411AF0EE410A00286FD023B1012BE5
:102A60004ED0022B6BD16BE0734D283D2D68C5F322
:102A700040153DB3704D283D2D68C5F3C1066F4D1F
:102A800025FA06F201EE102AF8EE411A01EE100ABC
:102A9000B8EE411A81EE812A9FED691AC0EE811AC3
:102AA000654D18352D68C5F3080501EE105AB8EECE
:102AB000411A31EE811AF7EE001A31EE211A22EE98
:102AC000010A1CE001EE100AB8EE411ADFED5D1AB2
:102AD00081EE812A9FED5A1AC0EE811A564D1835A3
:102AE0002D68C5F3080501EE105AB8EE411A31EE13
:102AF000811AF7EE001A31EE211A22EE010A5BE08C
:102B000001EE100AB8EE411ADFED4F1A81EE812A6C
:102B10009FED4B1AC0EE811A474D18352D68C5F34D
:102B2000080501EE105AB8EE411A31EE811AF7EE9F
:102B3000001A31EE211A22EE010A3DE077E01DE095
:102B400001EE100AB8EE411A9FED402AC2EE011ABA
:102B50009FED3B1A80EE812A374D18352D68C5F35D
:102B6000080501EE105AB8EE411A32EE011AB7EE1E
:102B7000002A31EE021A21EE810A1DE001EE100A50
:102B8000B8EE411ADFED301A81EE812A9FED2C1A42
:102B9000C0EE811A284D18352D68C5F3080501EEE1
:102BA000105AB8EE411A31EE811AF7EE001A31EEE2
:102BB000211A22EE010A00BF00BF1F4D18352D68F3
:102BC000C5F3462501EE105AB8EE411AF7EE001A89
:102BD00031EE211AC0EE011ABCEEE11A81ED001AA5
:102BE000154D18352D68C5F3064501EE105AB8EE9F
:102BF000411AF7EE001A31EE211AC0EE011ABCEEAE
:102C0000E11A81ED011A0C4D18352D68C5F30665E2
:102C100001EE105AB8EE411AF7EE001A31EE211A01
:102C2000C0EE011ABCEEE11A81ED021A03E00025A4
:102C30000D604D608D6070BD284402580090D00337
:102C4000000000460024744C0024744A20BCBE4B93
:102C50002DE9F04104460025A846206800F00060F8
:102C6000B0F1006F30D1206E48B1B0F5801F0DD0AB
:102C7000B0F5001F10D0B0F5401F15D113E0F74894
:102C8000006840F40030F54908600FE00221201D83
:102C900003F088FA054609E0022104F1240003F05C
:102CA00033FB054602E001E0012500BF00BF55B936
:102CB000EA482430006820F44010216E0843E749B8
:102CC0002431086000E0A846208800F48070B0F548
:102CD000807F2DD1606D05281AD2DFE800F0030A4D
:102CE00010171800DD48006840F40030DB49086028
:102CF00010E00021201D03F055FA05460AE00021EE
:102D000004F1240003F000FB054603E002E001E0CB
:102D1000012500BF00BF55B9D0482430006820F01D
:102D20000700616D0843CD492431086000E0A846E2
:102D3000208800F48060B0F5806F3CD1D4F8A0000A
:102D4000B0F5C00F23D007DC68B1B0F5001F11D07B
:102D5000B0F5800F1ED113E0B0F5000F18D0B0F51C
:102D6000200F17D115E0BD48006840F40030BB4982
:102D7000086011E00021201D03F014FA05460BE065
:102D8000002104F1240003F0BFFA054604E003E04B
:102D900002E001E0012500BF00BF5DB9AF482C3063
:102DA000006820F46000D4F8A0100843AB492C312F
:102DB000086000E0A846208800F40060B0F5006FCD
:102DC0003CD1D4F8A400B0F1407F23D007DC68B137
:102DD000B0F1807F11D0B0F1007F1ED113E0B0F1CF
:102DE000806F18D0B0F1A06F17D115E09B48006834
:102DF00040F400309949086011E00021201D03F0E3
:102E0000D1F905460BE0002104F1240003F07CFA1F
:102E1000054604E003E002E001E0012500BF00BF39
:102E20005DB98E482C30006820F0E060D4F8A41022
:102E300008438A492C31086000E0A846206800F069
:102E40000070B0F1007F27D1A06CA0B1102804D091
:102E5000202809D030280FD10CE08048006840F4C9
:102E600000307E49086009E00221201D03F09AF934
:102E7000054603E002E001E0012500BF00BF55B9AF
:102E800076482030006820F03000A16C0843734978
:102E90002031086000E0A846208800F48050B0F59A
:102EA000805F36D1A06DB0F5005F19D004DC50B161
:102EB000B0F5805F1DD10DE0B0F5405F17D0B0F5E3
:102EC000804F16D114E06548006840F40030634933
:102ED000086010E00021201D03F064F905460AE0B7
:102EE000002104F1240003F00FFA054603E002E09C
:102EF00001E0012500BF00BF55B9584824300068E3
:102F000020F4E040A16D084354492431086000E0FA
:102F1000A846208800F40050B0F5005F34D1E06D81
:102F2000B0F5403F1DD007DC68B1B0F5803F0BD055
:102F3000B0F5003F18D10DE0B0F5802F12D0B0F5FC
:102F4000A02F11D10FE011E00121201D03F02AF97B
:102F500005460BE0012104F1240003F0D5F90546F4
:102F600004E003E002E001E0012500BF00BF55B925
:102F70003A482430006820F4E020E16D08433749E6
:102F80002431086000E0A846208800F48040B0F5B5
:102F9000804F36D1D4F8A800B0F1405F1DD007DCD7
:102FA00068B1B0F1805F0BD0B0F1005F18D10DE0D7
:102FB000B0F1804F12D0B0F1A04F11D10FE011E06D
:102FC0000121201D03F0EEF805460BE0012104F17C
:102FD000240003F099F9054604E003E002E001E073
:102FE000012500BF00BF5DB91C482C30006820F0EF
:102FF000E040D4F8A810084318492C31086000E0DC
:10300000A846208800F40040B0F5004F29D1A06EFA
:1030100098B1B0F1805F03D0B0F1005F0ED106E04F
:103020000E48006840F400300C49086008E00121B7
:10303000201D03F0B7F8054602E001E0012500BFBE
:1030400000BF6DB905482430006820F04050A16EE3
:10305000084302492431086003E000002C44025870
:10306000A846206800F08070B0F1807F27D1606CA6
:10307000A0B1012804D0022809D003280FD10CE008
:10308000FE48006840F40030FC49086009E0022175
:10309000201D03F087F8054603E002E001E001256A
:1030A00000BF00BF55B9F5482030006820F003008C
:1030B000616C0843F1492031086000E0A8462068AF
:1030C00000F48000B0F5800F7DD1ED48006840F439
:1030D0008070EB490860FEF78DFF064606E0FEF7BC
:1030E00089FF801B642801D9032505E0E4480068B6
:1030F00000F480700028F2D000BF85BBDF48443068
:10310000006800F44070B4F8AC1001F440718842DB
:1031100013D0DA484430006820F44077D748443070
:10312000006840F48030D5494431086008460068A2
:1031300020F48030086008460760D4F8AC00B0F591
:10314000807F15D1FEF756FF064609E0FEF752FFD5
:10315000801B41F28831884202D9032507E035E01F
:10316000C64844300068C0F340000028EED000BFDD
:1031700055BB00BFB4F8AC0000F44070B0F5407F20
:103180000ED1BE481C38006820F47C51BD4AD4F8EA
:10319000AC00104041EA1010B8491C39086007E043
:1031A000B6481C38006820F47C50B4491C390860CB
:1031B000B24844300068B4F8AC10C1F30B010843C6
:1031C000AE494431086002E0A84600E0A8462078F5
:1031D00000F0010068B3606F182819D005DC48B111
:1031E000082808D0102816D10BE0202811D0282854
:1031F00011D10FE011E00121201D02F0D3FF05469F
:103200000BE0012104F1240003F07EF8054604E000
:1032100003E002E001E0012500BF00BF55B9974877
:103220002830006820F03800616F08439349283146
:10323000086000E0A846207800F00200022828D1AB
:10324000206F062815D2DFE800F003040A111213DC
:1032500011E00121201D02F0A5FF05460BE0012130
:1032600004F1240003F050F8054604E003E002E016
:1032700001E0012500BF00BF55B980482830006833
:1032800020F00700216F08437C492831086000E0E6
:10329000A846207800F0040004282AD1D4F88C0035
:1032A000062815D2DFE800F003040A11121311E01A
:1032B0000121201D02F076FF05460BE0012104F1FB
:1032C000240003F021F8054604E003E002E001E0F9
:1032D000012500BF00BF5DB968482C30006820F0B0
:1032E0000700D4F88C10084364492C31086000E0D2
:1032F000A846207800F02000202836D1D4F8880095
:10330000B0F1405F1DD007DC68B1B0F1805F0BD039
:10331000B0F1005F18D10DE0B0F1804F12D0B0F1E4
:10332000A04F11D10FE011E00021201D02F03AFF63
:1033300005460BE0022104F1240002F0E5FF0546FA
:1033400004E003E002E001E0012500BF00BF5DB939
:103350004A482830006820F0E040D4F8881008433C
:1033600046492831086000E0A846207800F0400077
:10337000402836D1D4F89400B0F5406F1DD007DC5A
:1033800068B1B0F5806F0BD0B0F5006F18D10DE0CB
:10339000B0F5805F12D0B0F5A05F11D10FE011E061
:1033A0000021201D02F0FEFE05460BE0022104F183
:1033B000240002F0A9FF054604E003E002E001E07A
:1033C000012500BF00BF5DB92C482C30006820F4F7
:1033D000E050D4F89410084328492C31086000E0EC
:1033E000A846207800F08000802836D1D4F89800D4
:1033F000B0F5C04F1DD007DC68B1B0F5005F0BD051
:10340000B0F5804F18D10DE0B0F5004F12D0B0F5F7
:10341000204F11D10FE011E00021201D02F0C2FE6B
:1034200005460BE0022104F1240002F06DFF054681
:1034300004E003E002E001E0012500BF00BF5DB948
:103440000E482C30006820F46040D4F898100843EF
:103450000A492C31086000E0A846207800F00800F6
:1034600008281BD1E06FB0F5805F0FD1022104F175
:10347000240002F049FF48B106E000002C44025845
:1034800000480258FFFCFF0F4FF00108A4480068F5
:1034900020F44050E16F0843A1490860207800F013
:1034A0001000102817D1D4F89000B0F5807F07D114
:1034B000022104F1240002F027FF08B14FF00108B7
:1034C0009748001D006820F44070D4F8901008431D
:1034D0009349091D0860206800F40020B0F5002F12
:1034E00028D1D4F89C0030B1B0F5803F09D0B0F5B8
:1034F000003F0ED10CE00021201D02F053FE0546D6
:1035000009E0022104F1240002F0FEFE054602E07B
:1035100001E0012500BF00BF5DB98148001D0068C2
:1035200020F44030D4F89C1008437D49091D086000
:1035300000E0A846206800F48020B0F5802F2BD151
:10354000D4F88000B0F5801F06D0B0F5001F0CD075
:10355000B0F5401F11D10FE071482838006840F4E1
:1035600000306F492839086009E0012104F1240086
:1035700002F0CAFE054602E001E0012500BF00BFDF
:103580004DB96748006820F44010D4F88010084313
:103590006349086000E0A846206800F48030B0F578
:1035A000803F24D1E06C18B1B0F5803F0FD108E026
:1035B0005B482838006840F40030594928390860D1
:1035C00007E00221201D02F0EDFD054601E0012586
:1035D00000BF00BF55B952480838006820F4803059
:1035E000E16C08434E490839086000E0A8462068AD
:1035F00000F00050B0F1005F07D1022104F1240077
:1036000002F082FE08B14FF00108206800F400309B
:10361000B0F5003F25D1A06FA0B1B0F5807F06D0F6
:10362000B0F5007F0CD0B0F5407F0CD109E03C48EC
:103630002838006840F4003039492839086004E02F
:1036400003E002E001E0012500BF00BF45B93448B6
:10365000006820F44070A16F08433149086000E021
:10366000A846206800F48010B0F5801F09D12C48CE
:10367000001F006820F00040E16E08432849091F40
:103680000860206800F40010B0F5001F09D124483C
:10369000001F006820F08070616E08432049091FF8
:1036A0000860206800F08040B0F1804F11D100BF69
:1036B0001B484438006820F4004019494439086028
:1036C00008460068D4F8B01008431549443908602A
:1036D00000BF206800F00040B0F1004F09D1104851
:1036E0000838006820F04050216D08430C49083923
:1036F0000860206800F40000B0F5000F08D1084809
:10370000006820F44000D4F884100843044908609D
:10371000B8F1000F02D10020BDE8F0810120FBE7E5
:10372000544402582DE9F04104460D4614B90120D5
:10373000BDE8F081BD48006800F00F00A8420ED23D
:10374000BA48006820F00F002843B84908600846CE
:10375000006800F00F00A84201D00120E8E72078BF
:1037600000F0040004280ED1B1492069096801F075
:103770007001884207D9AE48006820F070002169C6
:103780000843AB490860207800F00800082811D1F0
:10379000A749091D6069096801F07001884209D9CB
:1037A000A348001D006820F0700061690843A0492B
:1037B000091D0860207800F01000102811D19C49E4
:1037C000091DA069096801F4E061884209D9984897
:1037D000001D006820F4E060A16908439449091DB8
:1037E0000860207800F02000202811D1904908318D
:1037F000E069096801F07001884209D98C480830F5
:10380000006820F07000E1690843894908310860C8
:10381000207800F0020002280ED18549E06809688E
:1038200001F00F01884207D98148006820F00F009D
:10383000E16808437E490860207800F00100002814
:1038400050D07B48006820F47060A1680843784934
:1038500008606068022807D1754818380068C0F30E
:103860004040F8B9012063E76068032807D1704839
:1038700018380068C0F34060A0B9012058E76068BC
:10388000012807D16A4818380068C0F3002048B9F9
:1038900001204DE7664818380068C0F3800008B979
:1038A000012045E762480838006820F00700616899
:1038B00008435F4908390860FEF79CFB064608E0AC
:1038C000FEF798FB801B41F28831884201D9032022
:1038D0002EE757480838006800F038006168B0EB00
:1038E000C10FEDD1207800F0020002280ED150491E
:1038F000E068096801F00F01884207D24C4800686F
:1039000020F00F00E1680843494908604748006813
:1039100000F00F00A8420ED94448006820F00F00C4
:103920002843424908600846006800F00F00A8429A
:1039300001D00120FCE6207800F0040004280ED11C
:103940003B492069096801F07001884207D2384874
:10395000006820F07000216908433549086020782C
:1039600000F00800082811D13149091D6069096873
:1039700001F07001884209D22D48001D006820F036
:103980007000616908432A49091D0860207800F029
:103990001000102811D12649091DA069096801F4F9
:1039A000E061884209D22248001D006820F4E060EE
:1039B000A16908431E49091D0860207800F0200015
:1039C000202811D11A490831E069096801F0700115
:1039D000884209D216480830006820F07000E1697A
:1039E000084313490831086000F076F81049096867
:1039F000C1F303210F4A515C01F01F0120FA01F7C6
:103A00000B48006800F00F001146085C00F01F0032
:103A100027FA00F00849086008480760084800686D
:103A2000FEF700FE8046404682E60000002000527D
:103A300018440258409A0008200000241C0000246A
:103A40001400002410B500F047F80D490968C1F3CF
:103A500003210C4A515C01F01F0120FA01F40848CF
:103A6000006800F00F001146085C00F01F0024FA07
:103A700000F005490860054804600846006810BD6C
:103A800018440258409A0008200000241C0000241A
:103A900000B5FFF7D7FF05490968C1F30211044AD1
:103AA000515C01F01F01C84000BD00001C440258D9
:103AB000409A000800B5FFF7C5FF05490968C1F342
:103AC0000221044A515C01F01F01C84000BD000002
:103AD0001C440258409A0008F0B5824E366806F041
:103AE000380636B1082E15D0102E15D0182E7DD1DF
:103AF00014E07C4E103E3668C6F3401646B1794E4F
:103B0000103E3668C6F3C107774E26FA07F000E08C
:103B10007548E5E07548E3E07548E1E0714E183618
:103B2000366806F003046F4E18363668C6F3051182
:103B30006C4E1C36366806F001056A4E243636682F
:103B4000C6F3CC0616FB05F601EE106AB8EE410A84
:103B5000002971D024B1012C50D0022C6DD16DE020
:103B6000604E103E3668C6F340163EB35D4E103EC2
:103B70003668C6F3C1075C4E26FA07F301EE103A29
:103B8000F8EE411A01EE101AB8EE411A81EE812AC0
:103B90009FED581AC0EE011A524E20363668C6F311
:103BA000080601EE106AB8EE411A31EE811AF7EEFE
:103BB000001A31EE211A62EE010A1EE001EE101A1F
:103BC000B8EE411ADFED4C1A81EE812A9FED491AB9
:103BD000C0EE011A434E20363668C6F3080601EEE1
:103BE000106AB8EE411A31EE811A00E076E0F7EE85
:103BF000001A31EE211A62EE010A5BE001EE101AA2
:103C0000B8EE411A9FED3D2AC2EE011A9FED391A16
:103C100080EE012A334E20363668C6F3080601EEE0
:103C2000106AB8EE411A32EE011AB7EE002A31EEF0
:103C3000021A61EE810A3DE04EE01DE001EE101A2D
:103C4000B8EE411ADFED2E1A81EE812A9FED291A76
:103C5000C0EE011A234E20363668C6F3080601EE80
:103C6000106AB8EE411A31EE811AF7EE001A31EE01
:103C7000211A62EE010A1DE001EE101AB8EE411A97
:103C80009FED1E2AC2EE011A9FED1A1A80EE012A3C
:103C9000144E20363668C6F3080601EE106AB8EEF8
:103CA000411A32EE011AB7EE002A31EE021A61EE25
:103CB000810A00BF00BF0B4E20363668C6F3462689
:103CC000721C01EE102AB8EE411AC0EE811ABCEE49
:103CD000E11A11EE100A00E0002001E0034800BFE5
:103CE00000BFF0BD104402580090D00300093D0011
:103CF00040787D01000000460024744C0024744A82
:103D000020BCBE4B2DE9F047044614B90120BDE8A4
:103D1000F087207800F00100002870D0F948006892
:103D200000F03808F7481830D0F80090B8F1100FBC
:103D300006D0B8F1180F0FD109F0030002280BD1FB
:103D4000F04810380068C0F3404000286AD060682E
:103D5000002867D10120DAE700BF6068B0F5803F36
:103D600008D1E8481038006840F48030E54910393F
:103D700008602EE0606868B9E2481038006820F4F6
:103D80008030E049103908600846006820F480203F
:103D900008601EE06068B0F5A02F0DD1D94810383A
:103DA000006840F48020D749103908600846006850
:103DB00040F4803008600CE0D2481038006820F4ED
:103DC0008030D049103908600846006820F480200F
:103DD000086000BF606898B1FEF70CF9054606E080
:103DE000FEF708F9401B642801D903208FE7C54876
:103DF00010380068C0F340400028F1D012E012E013
:103E0000FEF7F8F8054606E0FEF7F4F8401B6428D4
:103E100001D903207BE7BB4810380068C0F340405D
:103E20000028F1D100BF207800F00200022879D1EB
:103E3000B448006800F03808B2481830D0F8009054
:103E4000B8F1000F05D0B8F1180F35D109F0030013
:103E500088BBAC4810380068C0F3800018B1E06837
:103E600008B9012053E7A7481038006820F019006E
:103E7000E1680843A34910390860FEF7BBF805461E
:103E800006E0FEF7B7F8401B022801D903203EE701
:103E90009C4810380068C0F380000028F1D0994891
:103EA0000C38006820F0FE40217C40EA0160954912
:103EB0000C39086045E0FFE7E06838B391481038F6
:103EC000006820F01900E16808438E491039086045
:103ED000FEF790F8054606E0FEF78CF8401B022836
:103EE00001D9032013E7874810380068C0F3800029
:103EF0000028F1D083480C38006820F0FE40217C77
:103F000040EA01607F490C3908601AE07D481038AA
:103F1000006820F001007B4910390860FEF76AF85C
:103F2000054607E00EE0FEF765F8401B022801D9C0
:103F30000320ECE6734810380068C0F380000028C6
:103F4000F1D100BF207800F0100010286FD16D482B
:103F5000006800F038086B481830D0F80090B8F1CD
:103F6000080F06D0B8F1180F1CD109F00300012882
:103F700018D1644810380068C0F3002020B1E0690F
:103F8000802801D00120C2E600BF5E48001F006803
:103F900020F07C5094F8201040EA01605949091F34
:103FA000086043E0E06938B356481038006840F0D4
:103FB0008000544910390860FEF71CF8054606E0F9
:103FC000FEF718F8401B022801D903209FE64D4850
:103FD00010380068C0F300200028F1D000BF494825
:103FE000001F006820F07C5094F8201040EA016027
:103FF0004449091F086019E042481038006820F061
:104000008000404910390860FDF7F4FF054606E0DE
:10401000FDF7F0FF401B022801D9032077E639485D
:1040200010380068C0F300200028F1D100BF2078CC
:1040300000F00800082836D16069D0B131486430FA
:10404000006840F001002F4964310860FDF7D2FF9D
:10405000054606E0FDF7CEFF401B022801D90320EC
:1040600055E6284864300068C0F340000028F1D0CD
:1040700019E024486430006820F0010021496431CF
:104080000860FDF7B7FF054606E0FDF7B3FF401BEC
:10409000022801D903203AE61A4864300068C0F3C8
:1040A00040000028F1D1207800F02000202838D1ED
:1040B000A069D0B113481038006840F4805011490D
:1040C00010390860FDF796FF054606E0FDF792FF00
:1040D000401B022801D9032019E60A48103800685D
:1040E000C0F340300028F1D01BE0064810380068CB
:1040F00020F48050034910390860FDF77BFF054626
:1041000009E0000010440258FDF774FF401B02282C
:1041100001D90320FBE5BA480068C0F3403000280D
:10412000F2D1207800F0040004287DD1B548006861
:1041300040F48070B3490860FDF75CFF054606E077
:10414000FDF758FF401B642801D90320DFE5AD4887
:10415000006800F480700028F2D000BFA068012839
:1041600008D1A7487030006840F00100A4497031C0
:1041700008602DE0A06868B9A1487030006820F0A0
:1041800001009F49703108600846006820F0040073
:1041900008601DE0A06805280DD1994870300068BE
:1041A00040F004009649703108600846006840F00D
:1041B000010008600CE092487030006820F00100B7
:1041C0008F49703108600846006820F004000860DC
:1041D00000BFA068A0B1FDF70DFF054608E0FDF7A0
:1041E00009FF401B41F28831884201D903208EE546
:1041F000834870300068C0F340000028EFD013E01F
:10420000FDF7F8FE054608E0FDF7F4FE401B41F21D
:104210008831884201D9032079E5794870300068F7
:10422000C0F340000028EFD1606A00287DD07448B8
:104230001030006800F03800182877D0606A022833
:1042400075D16F48006820F080706D490860FDF7F7
:10425000D1FE054606E0FDF7CDFE401B022801D940
:10426000032054E566480068C0F340600028F2D19E
:1042700000BFD4E90A1041EA0010614928310968F9
:1042800040F2F332914308435D4928310860208EA3
:10429000401EC0F30800616B491E4FF47E4202EAE3
:1042A00041210843218F491ED20102EA01410843FE
:1042B0003C21095D491E120202EA0161084350498E
:1042C0003031086000BF081F006820F00100091F9E
:1042D00008604B48343000684FF6F8718843A16C91
:1042E00040EAC10046493431086045482C30006836
:1042F00020F00C00216C084341492C31086008462D
:10430000006820F00200616C08433D492C310860D0
:104310000846006840F4803008600846006840F4B1
:10432000003008600846006802E066E038E01FE000
:1043300040F4802008600846006840F001000860F2
:104340002F48006840F080702D490860FDF752FE4C
:10435000054606E0FDF74EFE401B022801D903206A
:10436000D5E427480068C0F340600028F2D044E05C
:104370002348006820F0807021490860FDF73AFE6C
:10438000054606E0FDF736FE401B022801D9032052
:10439000BDE41B480068C0F340600028F2D12CE067
:1043A000174828300768164830300668606A0128C8
:1043B00021D007F00301A06A81421CD1C7F3051187
:1043C000E06A884217D1C6F30801206B401E814283
:1043D00011D1606B401EC6F3462188420BD1A06B01
:1043E000401EC6F30641884205D1E06B401EC6F36D
:1043F0000661884201D0012089E4002087E40000A2
:10440000004402580048025870B504462546681E0C
:10441000B0F1807F01D301200FE0681E4FF0E02152
:1044200048610F214FF0FF3003F016FC00204FF0E1
:10443000E021886107200861002070BD30B5024688
:104440000B4600BF92F83C00012801D1022030BD8C
:10445000012082F83C0000BF022082F83D00106875
:10446000416810688468254D1068A84203D0244D27
:104470001068A84203D121F470015868014321F06B
:10448000700118680143106841601C4D1068A84213
:1044900023D01068B0F1804F1FD01A4D1068A84289
:1044A0001BD0194D1068A84217D0184D1068A842AB
:1044B00013D0134D1068A8420FD0154D1068A842B4
:1044C0000BD0144D1068A84207D0134D1068A842B5
:1044D00003D0124D1068A84205D124F080049868DA
:1044E000044310688460012082F83D0000BF002072
:1044F00082F83C0000BF00BFA9E7000000000140B7
:10450000000401400004004000080040000C00408E
:10451000001800400040014000E0004000E400407E
:1045200010B504460CB9012010BD94F83D0028B91F
:10453000002084F83C00204600F02AF8022084F88D
:104540003D00211D206802F083F8012084F8480016
:1045500000BF84F83E0001213F2001554020015555
:1045600041200155422001554320015500BF00BFA5
:10457000012084F84400452001554620015547207C
:10458000015500BF012084F83D000020CCE7000069
:1045900008B5094A016891420DD100BF0749096871
:1045A00041F00101054A11601146096801F001015D
:1045B000009100BF00BF08BD00000140F044025858
:1045C000014691F83D00012801D0012070470220EA
:1045D00081F83D00204B0868984223D00868B0F16C
:1045E000804F1FD01D4B086898421BD01C4B086899
:1045F000984217D01B4B0868984213D01A4B086892
:1046000098420FD0194B086898420BD0184B086895
:10461000984207D0174B0868984203D0164B086899
:10462000984210D108688068144B00EA0302062AF9
:104630000FD0B2F5803F0CD00868006840F0010050
:104640000B68186005E00868006840F001000B681E
:1046500018600020BAE7000000000140000400409C
:1046600000080040000C0040000401400018004019
:104670000040014000E0004000E40040070001006D
:10468000014600BF0868006A41F21112104050B99B
:104690000868006A9210104028B90868006820F085
:1046A00001000A68106000BF012081F83D00002071
:1046B000704700002DE9F04104460D46002700BF79
:1046C00094F83C00012802D10220BDE8F0810120CD
:1046D00084F83C0000BF022084F83D002068866812
:1046E0004048064026F47F46206886602868702887
:1046F00026D00CDC00F00F01002966D1001107283C
:1047000063D2DFE800F0555657584B374100B0F1FF
:10471000101F52D009DCB0F5805F10D0B0F5005FFB
:104720001BD0B0F5801F50D146E0A0F58010203896
:10473000002843D0102842D0202846D140E046E04F
:10474000D5E902136A68206802F003F820688668D9
:1047500046F077062068866039E0D5E902136A687A
:10476000206801F0F6FF2068806840F480402168EE
:1047700088602CE0EA686968206802F0B5F9502189
:10478000206801F0F1FF22E0EA686968206802F021
:10479000BEF96021206801F0E7FF18E0EA68696867
:1047A000206802F0A1F94021206801F0DDFF0EE051
:1047B00000BF00BF00BF00BF00BF00BF00BF00BF01
:1047C0002968206801F0D0FF01E0012700BF00BF89
:1047D000012084F83D0000BF002084F83C0000BFA9
:1047E000384672E788FFCEFF10B586B00446142124
:1047F00001A8FBF7D3FD1049206888421AD100BFF9
:104800000E48006840F002000C4908600846006845
:1048100000F00200009000BF00BF012001900220C4
:1048200002900020039004900220059001A9044802
:10483000FDF7DAFA06B010BD00040040E04402586B
:10484000000402582DE9F04104460D4616460027A3
:1048500000BF94F83C00012802D10220BDE8F0819D
:10486000012084F83C0000BF0C2E51D005DC4EB175
:10487000042E1ED0082E7AD133E0102E60D0142ED4
:10488000F9D175E02946206801F07AFF2068806937
:1048900040F00800216888612068806920F00400E9
:1048A00021688861206880692969084321688861D6
:1048B00078E02946206801F0B9FF2068806940F45B
:1048C0000060216888612068806920F48060216828
:1048D000886120688069296940EA0120216888612F
:1048E00060E02946206801F0FBFF2068C06940F0C5
:1048F00008002168C8612068C06920F004002168B0
:10490000C8612068C069296908432168C86149E015
:104910002946206802F03EF82068C06940F4006033
:104920002168C8612068C06920F480602168C8617E
:104930002068C069296940EA01202168C86131E026
:104940002946206802F060F82068406D40F00800B9
:10495000216848652068406D20F0040021684865A2
:104960002068406D29690843216848651AE017E00E
:104970002946206802F080F82068406D40F400600D
:10498000216848652068406D20F480602168486592
:104990002068406D296940EA01202168486501E0EE
:1049A000012700BF00BF00BF002084F83C0000BF0B
:1049B000384653E710B504460CB9012010BD94F8F1
:1049C0003D0028B9002084F83C00204600F02AF879
:1049D000022084F83D00211D206801F039FE0120ED
:1049E00084F8480000BF84F83E0001213F200155B3
:1049F00040200155412001554220015543200155D9
:104A000000BF00BF012084F8440045200155462026
:104A100001554720015500BF012084F83D000020CA
:104A2000CCE7000008B5094A016891420DD100BFEA
:104A30000749096841F00201054A116011460968F9
:104A400001F00201009100BF00BF08BD000400405A
:104A5000E844025870B504460D4615B994F83E0076
:104A600015E0042D02D13F20005D10E0082D02D199
:104A70004020005D0BE00C2D02D14120005D06E0DE
:104A8000102D02D14220005D01E04320005D01288D
:104A900001D0012070BD1DB9022084F83E001AE04B
:104AA000042D03D102213F20015514E0082D03D12C
:104AB0000221402001550EE00C2D03D1022141209E
:104AC000015508E0102D03D102214220015502E0DA
:104AD00002214320015501222946206801F028FEC9
:104AE0002F49206888420FD02E49206888420BD079
:104AF0002D492068884207D02C492068884203D07D
:104B00002B492068884201D1012000E0002028B113
:104B10002068406C40F400402168486420492068C7
:104B2000884223D02068B0F1804F1FD021492068EF
:104B300088421BD020492068884217D01F4920682E
:104B4000884213D01749206888420FD01C4920683A
:104B500088420BD014492068884207D01949206840
:104B6000884203D018492068884210D120688068A4
:104B7000164900EA0106062E0FD0B6F5803F0CD08C
:104B80002068006840F001002168086005E02068A6
:104B9000006840F001002168086000207AE700000A
:104BA0000000014000040140004001400044014079
:104BB000004801400004004000080040000C004094
:104BC0000018004000E0004000E400400700010041
:104BD000014600BF91F88000012801D102207047F2
:104BE000012081F8800000BF2420C1F884000868FB
:104BF00002680868006820F001000B68186022F065
:104C0000005200204866086802602020C1F8840035
:104C100000BF002081F8800000BF00BFDFE77047C1
:104C2000704770B504460D4600BF94F88000012817
:104C300001D1022070BD012084F8800000BF242033
:104C4000C4F88400206806682068006820F001002D
:104C5000216808602068806820F06060284321682F
:104C60008860204601F080FF206806602020C4F89C
:104C7000840000BF002084F8800000BF00BFD9E797
:104C800070B504460D4600BF94F88000012801D19C
:104C9000022070BD012084F8800000BF2420C4F8E9
:104CA0008400206806682068006820F00100216800
:104CB00008602068806820F0604028432168886090
:104CC000204601F051FF206806602020C4F88400CF
:104CD00000BF002084F8800000BF00BFD9E7704704
:104CE000704770472DE9F04704462068C569206881
:104CF00006682068876840F60F0005EA0009B9F1E8
:104D0000000F0FD105F0200060B106F0200010B9AF
:104D100007F0805030B1206F10B12046216F8847D6
:104D2000BDE8F087B9F1000F7ED0F948384018B9D6
:104D3000F84830400028F7D005F0010058B106F4DB
:104D4000807040B1012021680862D4F88C0040F0E6
:104D50000100C4F88C0005F0020058B107F0010012
:104D600040B1022021680862D4F88C0040F00400B1
:104D7000C4F88C0005F0040058B107F0010040B100
:104D8000042021680862D4F88C0040F00200C4F8C6
:104D90008C0005F0080070B106F0200010B9DC4866
:104DA000384040B1082021680862D4F88C0040F0F7
:104DB0000800C4F88C0005F4006060B106F0806063
:104DC00048B14FF4006021680862D4F88C0040F0CC
:104DD0002000C4F88C00D4F88C0000284ED005F0D8
:104DE000200050B106F0200010B907F0805020B12B
:104DF000206F10B12046216F8847D4F88CA020681E
:104E0000806800F04000402802D00AF0280070B30B
:104E1000204601F099FF2068806800F0400040289B
:104E200021D100BF00BF00E029E02168083151E82E
:104E3000001F21F040002168083141E80002002AEB
:104E4000F1D100BFE06F50B1B348E16F0865E06F8A
:104E5000FCF764FD90B1E06F016D88470EE02046DD
:104E6000FFF73FFF0AE02046FFF73BFF06E0FFE7C2
:104E70002046FFF736FF0020C4F88C0050E7E06EB4
:104E8000012872D105F0100000286ED006F0100045
:104E90000028FAD01020216808622068806800F09D
:104EA000400040287ED1E06F00689C49884258D07D
:104EB000E06F006899491831884252D0E06F00686D
:104EC0009649303188424CD0E06F006893494831B0
:104ED000884246D0E06F006890496031884240D0F7
:104EE000E06F00688D49783188423AD0E06F006801
:104EF0008A499031884234D0E06F00688749A831F0
:104F000088422ED0E06F00688549884229D0E06F42
:104F1000006883491831884223D0E06F00688049D7
:104F2000303188421DD0E06F00687D4948318842A9
:104F300017D0E06F00687A496031884211D0E06F85
:104F400000687749783188420BD0E06F0068744977
:104F50009031884205D0E06F00687149A8318842DD
:104F600004D1E06F0068406803E0A0E0E06F0068F3
:104F700040681FFA80F8B8F1000F55D0B4F85C0013
:104F8000404551DDA4F85E80E06FC069B0F5807FD8
:104F900041D000BF00BF216851E8001F21F480709C
:104FA000226800E041E042E800010029F3D100BF9F
:104FB00000BF00BF2168083151E8001F21F0010047
:104FC0002168083141E80002002AF3D100BF00BF88
:104FD00000BF2168083151E8001F21F0400021681E
:104FE000083141E80002002AF3D100BF2020C4F8B4
:104FF00088000020E06600BF00BF216851E8001F64
:1050000021F01000226842E800010029F5D100BF1C
:10501000E06FFCF715FAB4F85C00B4F85E20801A73
:1050200081B22046FFF7FBFD7AE634F85C0F618819
:10503000401A1FFA80F860885C3CB8B3B8F1000FE2
:1050400034D000BF00BF216851E8001F21F49070E8
:10505000226842E800010029F5D100BF00BF00BF6F
:105060002168083151E8001F294AD24301EA0200B1
:105070002168083141E80002002AF1D100BF202058
:10508000C4F888000020E066206700BF00BF2168E8
:1050900051E8001F21F01000226842E800010029B9
:1050A000F5D100BF41462046FFF7B9FD38E605F4CB
:1050B000801050B107F4800038B14FF4801021689F
:1050C00008622046FFF70CFE2AE605F0800058B182
:1050D00006F0800010B907F4000028B1606F10B12D
:1050E0002046616F88471BE605F0400030B106F0AE
:1050F000400018B1204601F05DFE11E605F4000005
:1051000080B106F0804068B12046FFF7E8FD07E671
:1051100001000010200100042F6D00081000024063
:105120001004024005F0807030B106F0004018B164
:105130002046FFF775FDF3E500BFF1E510B5044625
:105140000CB9012010BDA06900B100E000BFD4F887
:10515000840028B9002084F88000204600F02AF856
:105160002420C4F884002068006820F00100216831
:105170000860204602F0DEF8012800D1E2E7A06ACC
:1051800010B1204601F01CFD2068406820F49040DA
:10519000216848602068806820F02A0021688860C3
:1051A0002068006840F0010021680860204601F096
:1051B00083FDC7E710B5B4B0044614212FA8FBF750
:1051C000EDF8B42102A8FBF7E9F8D049206888423D
:1051D0003DD10220029000201E9002A8FDF738FD6C
:1051E00008B1FCF729F900BFC948006840F4002065
:1051F000C74908600846006800F40020019000BF1D
:1052000000BF00BFC2480838006840F00100C04934
:10521000083908600846006800F00100019000BFEE
:1052200000BF03202F900220309000203190329058
:10523000082033902FA9B748FCF7D6FD002211466D
:105240003420FDF741FA3420FDF72AFA5CE1B24937
:10525000206888423ED10220029000201E9002A8C1
:10526000FDF7F6FC08B1FCF7E7F800BFA8480068B6
:1052700040F48010A64908600846006800F48010D9
:10528000019000BF00BF00BFA1480838006840F08F
:1052900002009F49083908600846006800F00200D3
:1052A000019000BF00BF4FF440502F90022030907B
:1052B0000020319032900E2033902FA99748FCF7B0
:1052C00093FD002211463520FDF7FEF93520FDF74C
:1052D000E7F919E19249206888423DD10220029005
:1052E00000201E9002A8FDF7B3FC08B1FCF7A4F85B
:1052F00000BF8748006840F0804085490860084644
:10530000006800F08040019000BF00BF00BF8048EF
:105310000838006840F020007D49083908600846D8
:10532000006800F02000019000BF00BFC0202F9057
:1053300002203090002031903290072033902FA926
:105340007848FCF751FD002211465220FDF7BCF9C8
:105350005220FDF7A5F9D7E073492068884240D173
:105360000120029000201F9002A8FDF771FC08B1F7
:10537000FCF762F800BF66480830006840F0100093
:105380006349083108600846006800F01000019089
:1053900000BF00BF00BF5E480838006840F0010051
:1053A0005B49083908600846006800F00100019078
:1053B00000BF00BF4FF4C0602F900220309000204B
:1053C00031903290072033902FA95248FCF70CFD02
:1053D000002211462520FDF777F92520FDF760F919
:1053E00092E05249206888423ED10220029000207B
:1053F0001E9002A8FDF72CFC08B1FCF71DF800BFB9
:105400004348006840F4802041490860084600682D
:1054100000F48020019000BF00BF00BF3C48083866
:10542000006840F002003A49083908600846006800
:1054300000F00200019000BF00BF4FF440602F90C9
:1054400002203090002031903290072033902FA915
:105450003248FCF7C9FC002202212720FDF734F96D
:105460002720FDF71DF94FE03149206888424BD1D4
:105470000120029000201F9002A8FDF7E9FB08B16F
:10548000FBF7DAFF00BF22480830006840F08000D8
:105490001F49083108600846006800F0800001904C
:1054A00000BF00BF00BF1A480838006840F0100075
:1054B0001749083908600846006800F0100001909C
:1054C00000BF00BF04202F900220309000203190B8
:1054D0003290042033902FA91648FCF785FC082051
:1054E0002F90022030900020319032900B2033908A
:1054F0002FA91048FCF778FC002201219C20FDF721
:10550000E3F89C20FDF7CCF834B010BD004C00400F
:10551000E8440258000002580050004000040258BD
:10552000007800400014025800100140004800407C
:10553000001C01400010025870B504460D46164686
:10554000D4F8880020282CD105B10EB9012070BDF7
:1055500000BF94F88000012801D10220F7E7012064
:1055600084F8800000BF0020E0660F492068884270
:1055700011D02068406800F4000060B100BF00BF97
:10558000216851E8001F41F08060226842E8000174
:105590000029F5D100BF32462946204602F0DEF947
:1055A000D5E70220D3E70000000C005810B50446F0
:1055B0005748844208D1574804F02CF80122554935
:1055C0005348FFF7B9FF10BD5348844215D15348E3
:1055D0000178534802780078401C514B18705148AC
:1055E000815418460078042801D103F0DBFD012224
:1055F0004A494948FFF7A0FFE5E74B4884422CD1D0
:105600004A480078242802D10120494908704848B6
:105610000078E0B145480178464802780078401C9F
:10562000444B18704448815418460078072808D124
:1056300003F0C8FC58B900203E4908703C49087086
:1056400005E03A4800780D2801D103F0DBFC012287
:1056500036493548FFF770FFB5E7384884421FD117
:1056600037480078FF2802D10120364908703548B4
:10567000007878B132480278334801780078401CCD
:10568000314B18703148425418460078042801D133
:1056900003F076FB01222A492848FFF74DFF92E7E5
:1056A0002B4884420FD12B4801782B480288008870
:1056B000401C294B1880294881540122254924483F
:1056C000FFF73AFF7FE7264884421FD1254800783C
:1056D000502802D10120244908702348007878B16D
:1056E00020480278214801780078401C1F4B187030
:1056F0001F4842541B4800780D2801D102F0D6FF04
:10570000012218491648FFF717FF5CE700BF5AE768
:105710004C03002454000024DC0300244D0000242A
:105720004C000024981000249C0100244800002410
:105730004900002447000024980C00242C02002477
:1057400041000024420000244000002418070024E7
:10575000BC020024460000244400002498070024D2
:105760006C040024290000242A00002428000024BE
:10577000940500242DE9F84F04460E461746994635
:10578000D4F8840020285ED106B117B90120BDE805
:10579000F88F00BF94F88000012801D10220F6E7BD
:1057A000012084F8800000BF00205434A063212031
:1057B0002063FCF71FFC824627806780543CA0686A
:1057C000B0F5805F04D1206910B90025B04602E031
:1057D00035464FF0000800BF002084F8800000BF6D
:1057E0001DE05346002280212046CDF8009002F0B3
:1057F0006DF908B10320CAE745B9B8F80000C0F355
:1058000008002168886208F1020803E0287821680E
:1058100088626D1CB4F85600401EA4F85600B4F817
:1058200056000028DDD15346002240212046CDF805
:10583000009002F04BF908B10320A8E72020C4F83B
:1058400084000020A3E70220A1E7704700BFFEE725
:1058500001688969C1F3400111B1002102689162B8
:105860000168896901F0010129B90168896941F07C
:1058700001010268916170472DE9F74F04460E4619
:1058800000272068D0F818800025DDF8089008F07F
:105890001000102850D12168C8613FE0701C00281A
:1058A0003CD0FCF7A7FBA0EB0900B04200D8AEBB90
:1058B0002068406800F4804A94F842B0206880690B
:1058C000C0F3C03070B1BAF5804F0BD0BBF1200FE0
:1058D00008D02068406840F4804021684860FCF7A8
:1058E00089FB814614E0FCF785FBA0EB0900192831
:1058F0000ED9606C40F020006064202084F84100E4
:10590000002084F8420000BF84F8400000BF012757
:1059100020688069C0F340100028E4D020688069C6
:10592000C0F3401008B9002FB8D017B92020216863
:10593000C86145F0040501272068D0F8188008F4F4
:105940008070B0F5807F06D145F001054FF480707E
:105950002168C861012708F48060B0F5806F06D126
:1059600045F008054FF480602168C861012708F4FC
:105970000070B0F5007F06D145F002054FF40070CD
:105980002168C8610127AFB12046FFF761FF206899
:1059900040680A49084021684860606C2843606498
:1059A000202084F84100002084F8420000BF84F8E1
:1059B000400000BF3846BDE8FE8F000000E800FE52
:1059C000F0B5059CC1F309064FF47F0707EA0247CB
:1059D0003E431E43264326F00045066876684FF492
:1059E000806707EA545767F0FC2747F4C047BE4377
:1059F0002E4307687E60F0BD2DE9F04104460E4657
:105A000017461D46DDF8188019E0681CB8B1FCF790
:105A1000F1FAA0EB0800A84200D885B9606C40F00C
:105A200020006064202084F84100002084F84200B7
:105A300000BF84F8400000BF0120BDE8F08120686D
:105A400080693040B04201D1012000E00020B8421E
:105A5000DBD00020F1E7000070B504460D46164685
:105A60004BE0324629462046FFF706FF08B10120E9
:105A700070BD20688069C0F3401050B32068806911
:105A8000C0F3800018B1208D08B10020F0E7206835
:105A90008069C0F3001028B110202168C86104207B
:105AA000606401E00020606420202168C8612068F3
:105AB00040681649084021684860202084F8410069
:105AC000002084F8420000BF84F8400000BF01209D
:105AD000CEE7FCF78FFA801BA84200D86DB9606C46
